{
  "_format": "hh-sol-artifact-1",
  "contractName": "MintNFT",
  "sourceName": "contracts/MintNFT.sol",
  "abi": [
    {
      "inputs": [],
      "stateMutability": "nonpayable",
      "type": "constructor"
    },
    {
      "inputs": [],
      "name": "MintNFT__TokenDosentExist",
      "type": "error"
    },
    {
      "anonymous": false,
      "inputs": [
        {
          "indexed": true,
          "internalType": "address",
          "name": "owner",
          "type": "address"
        },
        {
          "indexed": true,
          "internalType": "address",
          "name": "approved",
          "type": "address"
        },
        {
          "indexed": true,
          "internalType": "uint256",
          "name": "tokenId",
          "type": "uint256"
        }
      ],
      "name": "Approval",
      "type": "event"
    },
    {
      "anonymous": false,
      "inputs": [
        {
          "indexed": true,
          "internalType": "address",
          "name": "owner",
          "type": "address"
        },
        {
          "indexed": true,
          "internalType": "address",
          "name": "operator",
          "type": "address"
        },
        {
          "indexed": false,
          "internalType": "bool",
          "name": "approved",
          "type": "bool"
        }
      ],
      "name": "ApprovalForAll",
      "type": "event"
    },
    {
      "anonymous": false,
      "inputs": [
        {
          "indexed": true,
          "internalType": "address",
          "name": "previousOwner",
          "type": "address"
        },
        {
          "indexed": true,
          "internalType": "address",
          "name": "newOwner",
          "type": "address"
        }
      ],
      "name": "OwnershipTransferred",
      "type": "event"
    },
    {
      "anonymous": false,
      "inputs": [
        {
          "indexed": true,
          "internalType": "address",
          "name": "from",
          "type": "address"
        },
        {
          "indexed": true,
          "internalType": "address",
          "name": "to",
          "type": "address"
        },
        {
          "indexed": true,
          "internalType": "uint256",
          "name": "tokenId",
          "type": "uint256"
        }
      ],
      "name": "Transfer",
      "type": "event"
    },
    {
      "inputs": [
        {
          "internalType": "address",
          "name": "to",
          "type": "address"
        },
        {
          "internalType": "uint256",
          "name": "tokenId",
          "type": "uint256"
        }
      ],
      "name": "approve",
      "outputs": [],
      "stateMutability": "nonpayable",
      "type": "function"
    },
    {
      "inputs": [
        {
          "internalType": "address",
          "name": "owner",
          "type": "address"
        }
      ],
      "name": "balanceOf",
      "outputs": [
        {
          "internalType": "uint256",
          "name": "",
          "type": "uint256"
        }
      ],
      "stateMutability": "view",
      "type": "function"
    },
    {
      "inputs": [],
      "name": "getAllTokens",
      "outputs": [
        {
          "components": [
            {
              "internalType": "uint256",
              "name": "id",
              "type": "uint256"
            },
            {
              "internalType": "string",
              "name": "uri",
              "type": "string"
            },
            {
              "internalType": "string",
              "name": "space",
              "type": "string"
            }
          ],
          "internalType": "struct MintNFT.Token[]",
          "name": "",
          "type": "tuple[]"
        }
      ],
      "stateMutability": "view",
      "type": "function"
    },
    {
      "inputs": [
        {
          "internalType": "uint256",
          "name": "tokenId",
          "type": "uint256"
        }
      ],
      "name": "getApproved",
      "outputs": [
        {
          "internalType": "address",
          "name": "",
          "type": "address"
        }
      ],
      "stateMutability": "view",
      "type": "function"
    },
    {
      "inputs": [
        {
          "internalType": "uint256",
          "name": "_tokenId",
          "type": "uint256"
        }
      ],
      "name": "getTokenURI",
      "outputs": [
        {
          "internalType": "string",
          "name": "",
          "type": "string"
        }
      ],
      "stateMutability": "view",
      "type": "function"
    },
    {
      "inputs": [
        {
          "internalType": "address",
          "name": "owner",
          "type": "address"
        },
        {
          "internalType": "address",
          "name": "operator",
          "type": "address"
        }
      ],
      "name": "isApprovedForAll",
      "outputs": [
        {
          "internalType": "bool",
          "name": "",
          "type": "bool"
        }
      ],
      "stateMutability": "view",
      "type": "function"
    },
    {
      "inputs": [
        {
          "internalType": "address",
          "name": "_nftAddress",
          "type": "address"
        },
        {
          "internalType": "string",
          "name": "_tokenURI",
          "type": "string"
        }
      ],
      "name": "mintNFT",
      "outputs": [
        {
          "internalType": "uint256",
          "name": "",
          "type": "uint256"
        }
      ],
      "stateMutability": "nonpayable",
      "type": "function"
    },
    {
      "inputs": [],
      "name": "name",
      "outputs": [
        {
          "internalType": "string",
          "name": "",
          "type": "string"
        }
      ],
      "stateMutability": "view",
      "type": "function"
    },
    {
      "inputs": [],
      "name": "owner",
      "outputs": [
        {
          "internalType": "address",
          "name": "",
          "type": "address"
        }
      ],
      "stateMutability": "view",
      "type": "function"
    },
    {
      "inputs": [
        {
          "internalType": "uint256",
          "name": "tokenId",
          "type": "uint256"
        }
      ],
      "name": "ownerOf",
      "outputs": [
        {
          "internalType": "address",
          "name": "",
          "type": "address"
        }
      ],
      "stateMutability": "view",
      "type": "function"
    },
    {
      "inputs": [],
      "name": "renounceOwnership",
      "outputs": [],
      "stateMutability": "nonpayable",
      "type": "function"
    },
    {
      "inputs": [
        {
          "internalType": "address",
          "name": "from",
          "type": "address"
        },
        {
          "internalType": "address",
          "name": "to",
          "type": "address"
        },
        {
          "internalType": "uint256",
          "name": "tokenId",
          "type": "uint256"
        }
      ],
      "name": "safeTransferFrom",
      "outputs": [],
      "stateMutability": "nonpayable",
      "type": "function"
    },
    {
      "inputs": [
        {
          "internalType": "address",
          "name": "from",
          "type": "address"
        },
        {
          "internalType": "address",
          "name": "to",
          "type": "address"
        },
        {
          "internalType": "uint256",
          "name": "tokenId",
          "type": "uint256"
        },
        {
          "internalType": "bytes",
          "name": "data",
          "type": "bytes"
        }
      ],
      "name": "safeTransferFrom",
      "outputs": [],
      "stateMutability": "nonpayable",
      "type": "function"
    },
    {
      "inputs": [
        {
          "internalType": "address",
          "name": "operator",
          "type": "address"
        },
        {
          "internalType": "bool",
          "name": "approved",
          "type": "bool"
        }
      ],
      "name": "setApprovalForAll",
      "outputs": [],
      "stateMutability": "nonpayable",
      "type": "function"
    },
    {
      "inputs": [
        {
          "internalType": "bytes4",
          "name": "interfaceId",
          "type": "bytes4"
        }
      ],
      "name": "supportsInterface",
      "outputs": [
        {
          "internalType": "bool",
          "name": "",
          "type": "bool"
        }
      ],
      "stateMutability": "view",
      "type": "function"
    },
    {
      "inputs": [],
      "name": "symbol",
      "outputs": [
        {
          "internalType": "string",
          "name": "",
          "type": "string"
        }
      ],
      "stateMutability": "view",
      "type": "function"
    },
    {
      "inputs": [
        {
          "internalType": "uint256",
          "name": "tokenId",
          "type": "uint256"
        }
      ],
      "name": "tokenURI",
      "outputs": [
        {
          "internalType": "string",
          "name": "",
          "type": "string"
        }
      ],
      "stateMutability": "view",
      "type": "function"
    },
    {
      "inputs": [
        {
          "internalType": "address",
          "name": "from",
          "type": "address"
        },
        {
          "internalType": "address",
          "name": "to",
          "type": "address"
        },
        {
          "internalType": "uint256",
          "name": "tokenId",
          "type": "uint256"
        }
      ],
      "name": "transferFrom",
      "outputs": [],
      "stateMutability": "nonpayable",
      "type": "function"
    },
    {
      "inputs": [
        {
          "internalType": "address",
          "name": "newOwner",
          "type": "address"
        }
      ],
      "name": "transferOwnership",
      "outputs": [],
      "stateMutability": "nonpayable",
      "type": "function"
    }
  ],
  "bytecode": "0x60806040523480156200001157600080fd5b506040518060400160405280600c81526020017f4d696e74696e67204e46547300000000000000000000000000000000000000008152506040518060400160405280600481526020017f4d696e7400000000000000000000000000000000000000000000000000000000815250816000908051906020019062000096929190620001a6565b508060019080519060200190620000af929190620001a6565b505050620000d2620000c6620000d860201b60201c565b620000e060201b60201c565b620002bb565b600033905090565b6000600660009054906101000a900473ffffffffffffffffffffffffffffffffffffffff16905081600660006101000a81548173ffffffffffffffffffffffffffffffffffffffff021916908373ffffffffffffffffffffffffffffffffffffffff1602179055508173ffffffffffffffffffffffffffffffffffffffff168173ffffffffffffffffffffffffffffffffffffffff167f8be0079c531659141344cd1fd0a4f28419497f9722a3daafe3b4186f6b6457e060405160405180910390a35050565b828054620001b49062000256565b90600052602060002090601f016020900481019282620001d8576000855562000224565b82601f10620001f357805160ff191683800117855562000224565b8280016001018555821562000224579182015b828111156200022357825182559160200191906001019062000206565b5b50905062000233919062000237565b5090565b5b808211156200025257600081600090555060010162000238565b5090565b600060028204905060018216806200026f57607f821691505b602082108114156200028657620002856200028c565b5b50919050565b7f4e487b7100000000000000000000000000000000000000000000000000000000600052602260045260246000fd5b612ecc80620002cb6000396000f3fe608060405234801561001057600080fd5b50600436106101215760003560e01c806370a08231116100ad578063b88d4fde11610071578063b88d4fde14610308578063c87b56dd14610324578063e985e9c514610354578063eacabe1414610384578063f2fde38b146103b457610121565b806370a0823114610276578063715018a6146102a65780638da5cb5b146102b057806395d89b41146102ce578063a22cb465146102ec57610121565b806323b872dd116100f457806323b872dd146101c05780632a5c792a146101dc5780633bb3a24d146101fa57806342842e0e1461022a5780636352211e1461024657610121565b806301ffc9a71461012657806306fdde0314610156578063081812fc14610174578063095ea7b3146101a4575b600080fd5b610140600480360381019061013b9190611f98565b6103d0565b60405161014d919061248b565b60405180910390f35b61015e6104b2565b60405161016b91906124a6565b60405180910390f35b61018e60048036038101906101899190611ff2565b610544565b60405161019b9190612402565b60405180910390f35b6101be60048036038101906101b99190611f58565b61058a565b005b6101da60048036038101906101d59190611de6565b6106a2565b005b6101e4610702565b6040516101f19190612469565b60405180910390f35b610214600480360381019061020f9190611ff2565b6108ae565b60405161022191906124a6565b60405180910390f35b610244600480360381019061023f9190611de6565b610992565b005b610260600480360381019061025b9190611ff2565b6109b2565b60405161026d9190612402565b60405180910390f35b610290600480360381019061028b9190611d79565b610a64565b60405161029d9190612668565b60405180910390f35b6102ae610b1c565b005b6102b8610b30565b6040516102c59190612402565b60405180910390f35b6102d6610b5a565b6040516102e391906124a6565b60405180910390f35b61030660048036038101906103019190611ebc565b610bec565b005b610322600480360381019061031d9190611e39565b610c02565b005b61033e60048036038101906103399190611ff2565b610c64565b60405161034b91906124a6565b60405180910390f35b61036e60048036038101906103699190611da6565b610ccc565b60405161037b919061248b565b60405180910390f35b61039e60048036038101906103999190611efc565b610d60565b6040516103ab9190612668565b60405180910390f35b6103ce60048036038101906103c99190611d79565b610d97565b005b60007f80ac58cd000000000000000000000000000000000000000000000000000000007bffffffffffffffffffffffffffffffffffffffffffffffffffffffff1916827bffffffffffffffffffffffffffffffffffffffffffffffffffffffff1916148061049b57507f5b5e139f000000000000000000000000000000000000000000000000000000007bffffffffffffffffffffffffffffffffffffffffffffffffffffffff1916827bffffffffffffffffffffffffffffffffffffffffffffffffffffffff1916145b806104ab57506104aa82610e1b565b5b9050919050565b6060600080546104c190612908565b80601f01602080910402602001604051908101604052809291908181526020018280546104ed90612908565b801561053a5780601f1061050f5761010080835404028352916020019161053a565b820191906000526020600020905b81548152906001019060200180831161051d57829003601f168201915b5050505050905090565b600061054f82610e85565b6004600083815260200190815260200160002060009054906101000a900473ffffffffffffffffffffffffffffffffffffffff169050919050565b6000610595826109b2565b90508073ffffffffffffffffffffffffffffffffffffffff168373ffffffffffffffffffffffffffffffffffffffff161415610606576040517f08c379a00000000000000000000000000000000000000000000000000000000081526004016105fd90612628565b60405180910390fd5b8073ffffffffffffffffffffffffffffffffffffffff16610625610ed0565b73ffffffffffffffffffffffffffffffffffffffff16148061065457506106538161064e610ed0565b610ccc565b5b610693576040517f08c379a000000000000000000000000000000000000000000000000000000000815260040161068a906125a8565b60405180910390fd5b61069d8383610ed8565b505050565b6106b36106ad610ed0565b82610f91565b6106f2576040517f08c379a00000000000000000000000000000000000000000000000000000000081526004016106e990612648565b60405180910390fd5b6106fd838383611026565b505050565b60606000610710600761128d565b905060008167ffffffffffffffff81111561072e5761072d612aa1565b5b60405190808252806020026020018201604052801561076757816020015b610754611b6c565b81526020019060019003908161074c5790505b50905060005b8281116108a55761077d8161129b565b156108925760006008600083815260200190815260200160002080546107a290612908565b80601f01602080910402602001604051908101604052809291908181526020018280546107ce90612908565b801561081b5780601f106107f05761010080835404028352916020019161081b565b820191906000526020600020905b8154815290600101906020018083116107fe57829003601f168201915b5050505050905060405180606001604052808381526020018281526020016040518060400160405280600181526020017f200000000000000000000000000000000000000000000000000000000000000081525081525083838151811061088557610884612a72565b5b6020026020010181905250505b808061089d9061296b565b91505061076d565b50809250505090565b60606108b98261129b565b6108ef576040517fa8846d2a00000000000000000000000000000000000000000000000000000000815260040160405180910390fd5b60086000838152602001908152602001600020805461090d90612908565b80601f016020809104026020016040519081016040528092919081815260200182805461093990612908565b80156109865780601f1061095b57610100808354040283529160200191610986565b820191906000526020600020905b81548152906001019060200180831161096957829003601f168201915b50505050509050919050565b6109ad83838360405180602001604052806000815250610c02565b505050565b6000806002600084815260200190815260200160002060009054906101000a900473ffffffffffffffffffffffffffffffffffffffff169050600073ffffffffffffffffffffffffffffffffffffffff168173ffffffffffffffffffffffffffffffffffffffff161415610a5b576040517f08c379a0000000000000000000000000000000000000000000000000000000008152600401610a5290612608565b60405180910390fd5b80915050919050565b60008073ffffffffffffffffffffffffffffffffffffffff168273ffffffffffffffffffffffffffffffffffffffff161415610ad5576040517f08c379a0000000000000000000000000000000000000000000000000000000008152600401610acc90612588565b60405180910390fd5b600360008373ffffffffffffffffffffffffffffffffffffffff1673ffffffffffffffffffffffffffffffffffffffff168152602001908152602001600020549050919050565b610b24611307565b610b2e6000611385565b565b6000600660009054906101000a900473ffffffffffffffffffffffffffffffffffffffff16905090565b606060018054610b6990612908565b80601f0160208091040260200160405190810160405280929190818152602001828054610b9590612908565b8015610be25780601f10610bb757610100808354040283529160200191610be2565b820191906000526020600020905b815481529060010190602001808311610bc557829003601f168201915b5050505050905090565b610bfe610bf7610ed0565b838361144b565b5050565b610c13610c0d610ed0565b83610f91565b610c52576040517f08c379a0000000000000000000000000000000000000000000000000000000008152600401610c4990612648565b60405180910390fd5b610c5e848484846115b8565b50505050565b6060610c6f82610e85565b6000610c79611614565b90506000815111610c995760405180602001604052806000815250610cc4565b80610ca38461162b565b604051602001610cb49291906123de565b6040516020818303038152906040525b915050919050565b6000600560008473ffffffffffffffffffffffffffffffffffffffff1673ffffffffffffffffffffffffffffffffffffffff16815260200190815260200160002060008373ffffffffffffffffffffffffffffffffffffffff1673ffffffffffffffffffffffffffffffffffffffff16815260200190815260200160002060009054906101000a900460ff16905092915050565b600080610d6d600761128d565b9050610d79848261178c565b610d838184611966565b610d8d6007611992565b8091505092915050565b610d9f611307565b600073ffffffffffffffffffffffffffffffffffffffff168173ffffffffffffffffffffffffffffffffffffffff161415610e0f576040517f08c379a0000000000000000000000000000000000000000000000000000000008152600401610e06906124e8565b60405180910390fd5b610e1881611385565b50565b60007f01ffc9a7000000000000000000000000000000000000000000000000000000007bffffffffffffffffffffffffffffffffffffffffffffffffffffffff1916827bffffffffffffffffffffffffffffffffffffffffffffffffffffffff1916149050919050565b610e8e8161129b565b610ecd576040517f08c379a0000000000000000000000000000000000000000000000000000000008152600401610ec490612608565b60405180910390fd5b50565b600033905090565b816004600083815260200190815260200160002060006101000a81548173ffffffffffffffffffffffffffffffffffffffff021916908373ffffffffffffffffffffffffffffffffffffffff160217905550808273ffffffffffffffffffffffffffffffffffffffff16610f4b836109b2565b73ffffffffffffffffffffffffffffffffffffffff167f8c5be1e5ebec7d5bd14f71427d1e84f3dd0314c0f7b2291e5b200ac8c7c3b92560405160405180910390a45050565b600080610f9d836109b2565b90508073ffffffffffffffffffffffffffffffffffffffff168473ffffffffffffffffffffffffffffffffffffffff161480610fdf5750610fde8185610ccc565b5b8061101d57508373ffffffffffffffffffffffffffffffffffffffff1661100584610544565b73ffffffffffffffffffffffffffffffffffffffff16145b91505092915050565b8273ffffffffffffffffffffffffffffffffffffffff16611046826109b2565b73ffffffffffffffffffffffffffffffffffffffff161461109c576040517f08c379a000000000000000000000000000000000000000000000000000000000815260040161109390612508565b60405180910390fd5b600073ffffffffffffffffffffffffffffffffffffffff168273ffffffffffffffffffffffffffffffffffffffff16141561110c576040517f08c379a000000000000000000000000000000000000000000000000000000000815260040161110390612548565b60405180910390fd5b6111178383836119a8565b611122600082610ed8565b6001600360008573ffffffffffffffffffffffffffffffffffffffff1673ffffffffffffffffffffffffffffffffffffffff1681526020019081526020016000206000828254611172919061281e565b925050819055506001600360008473ffffffffffffffffffffffffffffffffffffffff1673ffffffffffffffffffffffffffffffffffffffff16815260200190815260200160002060008282546111c99190612797565b92505081905550816002600083815260200190815260200160002060006101000a81548173ffffffffffffffffffffffffffffffffffffffff021916908373ffffffffffffffffffffffffffffffffffffffff160217905550808273ffffffffffffffffffffffffffffffffffffffff168473ffffffffffffffffffffffffffffffffffffffff167fddf252ad1be2c89b69c2b068fc378daa952ba7f163c4a11628f55a4df523b3ef60405160405180910390a46112888383836119ad565b505050565b600081600001549050919050565b60008073ffffffffffffffffffffffffffffffffffffffff166002600084815260200190815260200160002060009054906101000a900473ffffffffffffffffffffffffffffffffffffffff1673ffffffffffffffffffffffffffffffffffffffff1614159050919050565b61130f610ed0565b73ffffffffffffffffffffffffffffffffffffffff1661132d610b30565b73ffffffffffffffffffffffffffffffffffffffff1614611383576040517f08c379a000000000000000000000000000000000000000000000000000000000815260040161137a906125e8565b60405180910390fd5b565b6000600660009054906101000a900473ffffffffffffffffffffffffffffffffffffffff16905081600660006101000a81548173ffffffffffffffffffffffffffffffffffffffff021916908373ffffffffffffffffffffffffffffffffffffffff1602179055508173ffffffffffffffffffffffffffffffffffffffff168173ffffffffffffffffffffffffffffffffffffffff167f8be0079c531659141344cd1fd0a4f28419497f9722a3daafe3b4186f6b6457e060405160405180910390a35050565b8173ffffffffffffffffffffffffffffffffffffffff168373ffffffffffffffffffffffffffffffffffffffff1614156114ba576040517f08c379a00000000000000000000000000000000000000000000000000000000081526004016114b190612568565b60405180910390fd5b80600560008573ffffffffffffffffffffffffffffffffffffffff1673ffffffffffffffffffffffffffffffffffffffff16815260200190815260200160002060008473ffffffffffffffffffffffffffffffffffffffff1673ffffffffffffffffffffffffffffffffffffffff16815260200190815260200160002060006101000a81548160ff0219169083151502179055508173ffffffffffffffffffffffffffffffffffffffff168373ffffffffffffffffffffffffffffffffffffffff167f17307eab39ab6107e8899845ad3d59bd9653f200f220920489ca2b5937696c31836040516115ab919061248b565b60405180910390a3505050565b6115c3848484611026565b6115cf848484846119b2565b61160e576040517f08c379a0000000000000000000000000000000000000000000000000000000008152600401611605906124c8565b60405180910390fd5b50505050565b606060405180602001604052806000815250905090565b60606000821415611673576040518060400160405280600181526020017f30000000000000000000000000000000000000000000000000000000000000008152509050611787565b600082905060005b600082146116a557808061168e9061296b565b915050600a8261169e91906127ed565b915061167b565b60008167ffffffffffffffff8111156116c1576116c0612aa1565b5b6040519080825280601f01601f1916602001820160405280156116f35781602001600182028036833780820191505090505b5090505b600085146117805760018261170c919061281e565b9150600a8561171b91906129b4565b60306117279190612797565b60f81b81838151811061173d5761173c612a72565b5b60200101907effffffffffffffffffffffffffffffffffffffffffffffffffffffffffffff1916908160001a905350600a8561177991906127ed565b94506116f7565b8093505050505b919050565b600073ffffffffffffffffffffffffffffffffffffffff168273ffffffffffffffffffffffffffffffffffffffff1614156117fc576040517f08c379a00000000000000000000000000000000000000000000000000000000081526004016117f3906125c8565b60405180910390fd5b6118058161129b565b15611845576040517f08c379a000000000000000000000000000000000000000000000000000000000815260040161183c90612528565b60405180910390fd5b611851600083836119a8565b6001600360008473ffffffffffffffffffffffffffffffffffffffff1673ffffffffffffffffffffffffffffffffffffffff16815260200190815260200160002060008282546118a19190612797565b92505081905550816002600083815260200190815260200160002060006101000a81548173ffffffffffffffffffffffffffffffffffffffff021916908373ffffffffffffffffffffffffffffffffffffffff160217905550808273ffffffffffffffffffffffffffffffffffffffff16600073ffffffffffffffffffffffffffffffffffffffff167fddf252ad1be2c89b69c2b068fc378daa952ba7f163c4a11628f55a4df523b3ef60405160405180910390a4611962600083836119ad565b5050565b8060086000848152602001908152602001600020908051906020019061198d929190611b8d565b505050565b6001816000016000828254019250508190555050565b505050565b505050565b60006119d38473ffffffffffffffffffffffffffffffffffffffff16611b49565b15611b3c578373ffffffffffffffffffffffffffffffffffffffff1663150b7a026119fc610ed0565b8786866040518563ffffffff1660e01b8152600401611a1e949392919061241d565b602060405180830381600087803b158015611a3857600080fd5b505af1925050508015611a6957506040513d601f19601f82011682018060405250810190611a669190611fc5565b60015b611aec573d8060008114611a99576040519150601f19603f3d011682016040523d82523d6000602084013e611a9e565b606091505b50600081511415611ae4576040517f08c379a0000000000000000000000000000000000000000000000000000000008152600401611adb906124c8565b60405180910390fd5b805181602001fd5b63150b7a0260e01b7bffffffffffffffffffffffffffffffffffffffffffffffffffffffff1916817bffffffffffffffffffffffffffffffffffffffffffffffffffffffff191614915050611b41565b600190505b949350505050565b6000808273ffffffffffffffffffffffffffffffffffffffff163b119050919050565b60405180606001604052806000815260200160608152602001606081525090565b828054611b9990612908565b90600052602060002090601f016020900481019282611bbb5760008555611c02565b82601f10611bd457805160ff1916838001178555611c02565b82800160010185558215611c02579182015b82811115611c01578251825591602001919060010190611be6565b5b509050611c0f9190611c13565b5090565b5b80821115611c2c576000816000905550600101611c14565b5090565b6000611c43611c3e846126a8565b612683565b905082815260208101848484011115611c5f57611c5e612ad5565b5b611c6a8482856128c6565b509392505050565b6000611c85611c80846126d9565b612683565b905082815260208101848484011115611ca157611ca0612ad5565b5b611cac8482856128c6565b509392505050565b600081359050611cc381612e3a565b92915050565b600081359050611cd881612e51565b92915050565b600081359050611ced81612e68565b92915050565b600081519050611d0281612e68565b92915050565b600082601f830112611d1d57611d1c612ad0565b5b8135611d2d848260208601611c30565b91505092915050565b600082601f830112611d4b57611d4a612ad0565b5b8135611d5b848260208601611c72565b91505092915050565b600081359050611d7381612e7f565b92915050565b600060208284031215611d8f57611d8e612adf565b5b6000611d9d84828501611cb4565b91505092915050565b60008060408385031215611dbd57611dbc612adf565b5b6000611dcb85828601611cb4565b9250506020611ddc85828601611cb4565b9150509250929050565b600080600060608486031215611dff57611dfe612adf565b5b6000611e0d86828701611cb4565b9350506020611e1e86828701611cb4565b9250506040611e2f86828701611d64565b9150509250925092565b60008060008060808587031215611e5357611e52612adf565b5b6000611e6187828801611cb4565b9450506020611e7287828801611cb4565b9350506040611e8387828801611d64565b925050606085013567ffffffffffffffff811115611ea457611ea3612ada565b5b611eb087828801611d08565b91505092959194509250565b60008060408385031215611ed357611ed2612adf565b5b6000611ee185828601611cb4565b9250506020611ef285828601611cc9565b9150509250929050565b60008060408385031215611f1357611f12612adf565b5b6000611f2185828601611cb4565b925050602083013567ffffffffffffffff811115611f4257611f41612ada565b5b611f4e85828601611d36565b9150509250929050565b60008060408385031215611f6f57611f6e612adf565b5b6000611f7d85828601611cb4565b9250506020611f8e85828601611d64565b9150509250929050565b600060208284031215611fae57611fad612adf565b5b6000611fbc84828501611cde565b91505092915050565b600060208284031215611fdb57611fda612adf565b5b6000611fe984828501611cf3565b91505092915050565b60006020828403121561200857612007612adf565b5b600061201684828501611d64565b91505092915050565b600061202b8383612369565b905092915050565b61203c81612852565b82525050565b600061204d8261271a565b6120578185612748565b9350836020820285016120698561270a565b8060005b858110156120a55784840389528151612086858261201f565b94506120918361273b565b925060208a0199505060018101905061206d565b50829750879550505050505092915050565b6120c081612864565b82525050565b60006120d182612725565b6120db8185612759565b93506120eb8185602086016128d5565b6120f481612ae4565b840191505092915050565b600061210a82612730565b612114818561276a565b93506121248185602086016128d5565b61212d81612ae4565b840191505092915050565b600061214382612730565b61214d818561277b565b935061215d8185602086016128d5565b61216681612ae4565b840191505092915050565b600061217c82612730565b612186818561278c565b93506121968185602086016128d5565b80840191505092915050565b60006121af60328361277b565b91506121ba82612af5565b604082019050919050565b60006121d260268361277b565b91506121dd82612b44565b604082019050919050565b60006121f560258361277b565b915061220082612b93565b604082019050919050565b6000612218601c8361277b565b915061222382612be2565b602082019050919050565b600061223b60248361277b565b915061224682612c0b565b604082019050919050565b600061225e60198361277b565b915061226982612c5a565b602082019050919050565b600061228160298361277b565b915061228c82612c83565b604082019050919050565b60006122a4603e8361277b565b91506122af82612cd2565b604082019050919050565b60006122c760208361277b565b91506122d282612d21565b602082019050919050565b60006122ea60208361277b565b91506122f582612d4a565b602082019050919050565b600061230d60188361277b565b915061231882612d73565b602082019050919050565b600061233060218361277b565b915061233b82612d9c565b604082019050919050565b6000612353602e8361277b565b915061235e82612deb565b604082019050919050565b600060608301600083015161238160008601826123c0565b506020830151848203602086015261239982826120ff565b915050604083015184820360408601526123b382826120ff565b9150508091505092915050565b6123c9816128bc565b82525050565b6123d8816128bc565b82525050565b60006123ea8285612171565b91506123f68284612171565b91508190509392505050565b60006020820190506124176000830184612033565b92915050565b60006080820190506124326000830187612033565b61243f6020830186612033565b61244c60408301856123cf565b818103606083015261245e81846120c6565b905095945050505050565b600060208201905081810360008301526124838184612042565b905092915050565b60006020820190506124a060008301846120b7565b92915050565b600060208201905081810360008301526124c08184612138565b905092915050565b600060208201905081810360008301526124e1816121a2565b9050919050565b60006020820190508181036000830152612501816121c5565b9050919050565b60006020820190508181036000830152612521816121e8565b9050919050565b600060208201905081810360008301526125418161220b565b9050919050565b600060208201905081810360008301526125618161222e565b9050919050565b6000602082019050818103600083015261258181612251565b9050919050565b600060208201905081810360008301526125a181612274565b9050919050565b600060208201905081810360008301526125c181612297565b9050919050565b600060208201905081810360008301526125e1816122ba565b9050919050565b60006020820190508181036000830152612601816122dd565b9050919050565b6000602082019050818103600083015261262181612300565b9050919050565b6000602082019050818103600083015261264181612323565b9050919050565b6000602082019050818103600083015261266181612346565b9050919050565b600060208201905061267d60008301846123cf565b92915050565b600061268d61269e565b9050612699828261293a565b919050565b6000604051905090565b600067ffffffffffffffff8211156126c3576126c2612aa1565b5b6126cc82612ae4565b9050602081019050919050565b600067ffffffffffffffff8211156126f4576126f3612aa1565b5b6126fd82612ae4565b9050602081019050919050565b6000819050602082019050919050565b600081519050919050565b600081519050919050565b600081519050919050565b6000602082019050919050565b600082825260208201905092915050565b600082825260208201905092915050565b600082825260208201905092915050565b600082825260208201905092915050565b600081905092915050565b60006127a2826128bc565b91506127ad836128bc565b9250827fffffffffffffffffffffffffffffffffffffffffffffffffffffffffffffffff038211156127e2576127e16129e5565b5b828201905092915050565b60006127f8826128bc565b9150612803836128bc565b92508261281357612812612a14565b5b828204905092915050565b6000612829826128bc565b9150612834836128bc565b925082821015612847576128466129e5565b5b828203905092915050565b600061285d8261289c565b9050919050565b60008115159050919050565b60007fffffffff0000000000000000000000000000000000000000000000000000000082169050919050565b600073ffffffffffffffffffffffffffffffffffffffff82169050919050565b6000819050919050565b82818337600083830152505050565b60005b838110156128f35780820151818401526020810190506128d8565b83811115612902576000848401525b50505050565b6000600282049050600182168061292057607f821691505b6020821081141561293457612933612a43565b5b50919050565b61294382612ae4565b810181811067ffffffffffffffff8211171561296257612961612aa1565b5b80604052505050565b6000612976826128bc565b91507fffffffffffffffffffffffffffffffffffffffffffffffffffffffffffffffff8214156129a9576129a86129e5565b5b600182019050919050565b60006129bf826128bc565b91506129ca836128bc565b9250826129da576129d9612a14565b5b828206905092915050565b7f4e487b7100000000000000000000000000000000000000000000000000000000600052601160045260246000fd5b7f4e487b7100000000000000000000000000000000000000000000000000000000600052601260045260246000fd5b7f4e487b7100000000000000000000000000000000000000000000000000000000600052602260045260246000fd5b7f4e487b7100000000000000000000000000000000000000000000000000000000600052603260045260246000fd5b7f4e487b7100000000000000000000000000000000000000000000000000000000600052604160045260246000fd5b600080fd5b600080fd5b600080fd5b600080fd5b6000601f19601f8301169050919050565b7f4552433732313a207472616e7366657220746f206e6f6e20455243373231526560008201527f63656976657220696d706c656d656e7465720000000000000000000000000000602082015250565b7f4f776e61626c653a206e6577206f776e657220697320746865207a65726f206160008201527f6464726573730000000000000000000000000000000000000000000000000000602082015250565b7f4552433732313a207472616e736665722066726f6d20696e636f72726563742060008201527f6f776e6572000000000000000000000000000000000000000000000000000000602082015250565b7f4552433732313a20746f6b656e20616c7265616479206d696e74656400000000600082015250565b7f4552433732313a207472616e7366657220746f20746865207a65726f2061646460008201527f7265737300000000000000000000000000000000000000000000000000000000602082015250565b7f4552433732313a20617070726f766520746f2063616c6c657200000000000000600082015250565b7f4552433732313a2061646472657373207a65726f206973206e6f74206120766160008201527f6c6964206f776e65720000000000000000000000000000000000000000000000602082015250565b7f4552433732313a20617070726f76652063616c6c6572206973206e6f7420746f60008201527f6b656e206f776e6572206e6f7220617070726f76656420666f7220616c6c0000602082015250565b7f4552433732313a206d696e7420746f20746865207a65726f2061646472657373600082015250565b7f4f776e61626c653a2063616c6c6572206973206e6f7420746865206f776e6572600082015250565b7f4552433732313a20696e76616c696420746f6b656e2049440000000000000000600082015250565b7f4552433732313a20617070726f76616c20746f2063757272656e74206f776e6560008201527f7200000000000000000000000000000000000000000000000000000000000000602082015250565b7f4552433732313a2063616c6c6572206973206e6f7420746f6b656e206f776e6560008201527f72206e6f7220617070726f766564000000000000000000000000000000000000602082015250565b612e4381612852565b8114612e4e57600080fd5b50565b612e5a81612864565b8114612e6557600080fd5b50565b612e7181612870565b8114612e7c57600080fd5b50565b612e88816128bc565b8114612e9357600080fd5b5056fea2646970667358221220f77cfc2a3cca80c30682fbc9edd70d7141395138c529e1283fa428ddf75851a264736f6c63430008070033",
  "linkReferences": {},
  "deployedLinkReferences": {}
}